:020000040800F2
:10000000C843002059020008EB1A0008BB1600087C
:10001000E91A000865030008B9260008000000007E
:100020000000000000000000000000009D0100082A
:100030001904000800000000F1010008351D000847
:1000400073020008730200087302000873020008BC
:1000500073020008730200087302000873020008AC
:10006000730200087302000873020008730200089C
:10007000730200087302000873020008730200088C
:10008000730200087302000873020008730200087C
:10009000730200087302000873020008730200086C
:1000A000730200082D1E0008730200087302000886
:1000B000730200087302000873020008730200084C
:1000C000730200087302000873020008730200083C
:1000D000730200087302000873020008730200082C
:1000E000730200087302000873020008730200081C
:1000F000730200087302000873020008730200080C
:1001000073020008730200087302000873020008FB
:1001100073020008730200087302000873020008EB
:1001200073020008730200086903000873020008E4
:1001300073020008730200087302000873020008CB
:1001400073020008730200087302000873020008BB
:1001500073020008730200087302000873020008AB
:10016000730200087302000873020008730200089B
:100170007302000873020008730200080000000008
:100180007302000873020008DFF80CD000F0D8F802
:1001900000480047AD270008C84300202B4B1968D2
:1001A0000868B0E8F04F80F30988BFF36F8F4FF015
:1001B000000080F3118870470000000006480068C6
:1001C000006880F3088862B661B6BFF34F8FBFF353
:1001D0006F8F00DF00BF00BF08ED00E0DFF80C000C
:1001E000016841F470010160704700BF88ED00E0D4
:1001F000EFF30980BFF36F8F144B1A681EF0100FD6
:1002000008BF20ED108A20E9F04F106008B44FF0CD
:10021000500080F31188BFF34F8FBFF36F8F02F050
:10022000B1FE4FF0000080F3118808BC196808681F
:10023000B0E8F04F1EF0100F08BFB0EC108A80F34A
:100240000988BFF36F8F704700BF00BF44000020D4
:10025000EFF30580704700000648804706480047D6
:10026000FEE7FEE7FEE7FEE7FEE7FEE7FEE7FEE766
:10027000FEE7FEE7D91D0008890100082DE9F05FBF
:100280000546002092469B46884606468146402405
:100290001BE0284641464746224600F041F85346B7
:1002A0005A46C01A914110D311461846224600F012
:1002B00028F82D1A67EB01084F462246012000213D
:1002C00000F01FF817EB00094E41201EA4F10104B5
:1002D000DFDC484631462A464346BDE8F09F40EA07
:1002E00001039B0703D009E008C9121F08C0042AB4
:1002F000FAD203E011F8013B00F8013B521EF9D29B
:100300007047202A04DB203A00FA02F100207047EF
:100310009140C2F1200320FA03F319439040704743
:10032000202A04DB203A21FA02F00021704721FA4A
:1003300002F3D040C2F120029140084319467047B1
:10034000064C074D06E0E06840F0010394E8070022
:1003500098471034AC42F6D3FFF71AFF8C330008ED
:10036000AC330008FEE70000014800F057B8000079
:10037000E001002001681823CAB2103AB2FBF3F280
:10038000054B6FF30901032A9B5CC36500D9091D66
:1003900081650846704700003C33000810B50146EF
:1003A00000208B698A6A4FF0C07453B1B3F5005FC7
:1003B00015D072B1012A0CD0022A0AD0032A09D121
:1003C00004E01AB1012A06D0022A03D1C96AC90180
:1003D00000D5012010BDC96AA142FAD010BD002A83
:1003E000F7D0012AF2D0022AF3D0032AF3D010BDAD
:1003F00030B50468256825F48025256004686360AD
:100400008368402B036803D099600068C26030BDE8
:100410009A600068C16030BD704700002DE9F84364
:1004200004464FF00009CDF8009063484FF4165190
:10043000A56D0068B0FBF1F72E6894F85C100820F9
:1004400000FA01F131420FD021680A6852070BD53A
:100450000A6822F004020A6094F85C108840A860E0
:10046000606D40F00100606594F85C104FF0010889
:1004700008FA01F0304208D021684969090604D51C
:10048000A860606D40F00200606594F85C10042084
:100490008840304208D021680968890704D5A860DF
:1004A000606D40F00400606594F85C101020884096
:1004B000304218D021680968090714D5A86020685F
:1004C0000168490304D50068000308D5A16C07E062
:1004D0000168C90503D4016821F008010160216C9D
:1004E00009B12046884794F85C10202088403042AB
:1004F00031D021680968C9062DD5A86094F8350067
:1005000005282068016806D0490347D50068000324
:100510001DD4616C1CE021F0160101602068416966
:1005200021F080014161206C08B9A06C20B12068E5
:10053000016821F00801016094F85C103F208840B8
:10054000A86084F8349084F83580216D1FE0E16B59
:1005500009B120468847606D00282BD0606DC00728
:1005600014D0052084F835002068016821F00101CD
:1005700001600098401C0090B84203D820680068D1
:10058000C007F6D184F8349084F83580E16C0029F6
:1005900010D001B02046BDE8F04308470168C90506
:1005A000D5D4016821F01001016084F8349084F8FA
:1005B0003580CCE7BDE8F8831C0000202DE9F04130
:1005C000044600F099F906465CB1002584F83450E1
:1005D000022084F835002068016821F001010160E3
:1005E0000DE00120BDE8F08100F086F9801B0528B0
:1005F00005D920206065032084F83500F2E72068E3
:100600000068C007F0D12268116820480140D4E991
:1006100001031843D4E9033633431843636918438D
:10062000A3691843E3691843236A18430843616ABE
:10063000042903D1D4E90B1319430843106020683F
:100640004069666A20F0070130460E4301270428FE
:100650000CD1A06A0643E06A40B12046FFF79EFE37
:1006600020B14020606584F83570BAE720684661A3
:100670002046FFF77FFE94F85C203F219140816087
:10068000656584F835700020ACE700003F8010F00D
:100690002DE9F0410446866D90F8340000250128CC
:1006A0000DD0012084F8340094F835700020012F1B
:1006B00007D084F8340002252846BDE8F0810220E6
:1006C000FBE7022784F8357060652046FFF790FE4F
:1006D00094F85C103F208840B0602068016841F0C9
:1006E000160101602068416941F080014161206C80
:1006F00020B12068016841F00801016020680168AC
:1007000041F001010160D7E770B5044600F0F4F84C
:100710000546601C02D004480078044400F0ECF860
:10072000401BA042FAD370BD100000202DE9F84F05
:10073000DFF87CB100224FF001084FF0030A4FF0C0
:100740000F090BF1040E00BF0B6808FA02F42340F6
:10075000A3426ED14D68022D01D0122D0ED1D508C5
:1007600000EB850CDCF820505607F70E09FA07F667
:10077000B5430E69BE402E43CCF820600668550094
:100780000F790AFA05FC07F0030726EA0C06AF40CA
:10079000374307604E68012E05D0022E03D0112E7C
:1007A00001D0122E0ED18668CF6826EA0C06AF4023
:1007B000374387604668A6430C79C4F3001494401D
:1007C00034434460C6688C6826EA0C06AC40344367
:1007D000C4604C68E40065D5364C256845F4804516
:1007E0002560246822F0030504F480440094324C10
:1007F0002E19D6F8084895072F0F09FA07F5AC43CC
:100800002E4DA84201D1002524E02D4DA84201D152
:1008100001251FE02B4DA84201D102251AE02A4DE7
:10082000A84201D1032515E0284DA84202D1042594
:1008300010E037E0264DA84201D105250AE0254DFC
:10084000A84201D1062505E0234DA84201D1072584
:1008500000E00825BD402543C6F80858DBF80040F5
:100860005D464E689C43F60300D51C432C60DEF8C1
:10087000004075464E689C43B60300D51C432C606F
:100880000B4D08352C684E689C43F60200D51C437E
:100890002C60074D0C352C684E689C43B60200D581
:1008A0001C432C60521C102AFFF44EAFBDE8F88F99
:1008B000003C01404438024000300140000002404A
:1008C0000004024000080240000C024000100240F8
:1008D0000014024000180240001C02400069084059
:1008E00000D00120704742694A40426170470AB116
:1008F000816170470904FBE7014880687047000088
:100900001000002070B5040011D021684CF6CC40D6
:100910000860216845F255500860D4E90001416043
:100920002168A0688860FFF7E7FF054609E001201D
:1009300070BD00BFFFF7E0FF401B302801D9032046
:1009400070BD2068C0680028F4D121684AF6AA204A
:100950000860002070BD00684AF6AA2101600020EE
:100960007047000002488168027811448160704736
:10097000100000200B4810B5016841F400710160BF
:10098000016841F480610160016841F48071016097
:10099000032000F0BBF8002000F006F800F03EF85D
:1009A000002010BD003C024010B5014688B0002276
:1009B000192000F08BF8192000F07DF8134800246E
:1009C000016841F001010160006805A900F0010023
:1009D0000690684600F044F900F078F90C494000B0
:1009E000B0FBF1F10C480B4A491E026040F2E732BD
:1009F000C0E90324C0E9011400F082FB10B101201A
:100A000008B010BD044800F0B8FBF9E744380240D4
:100A100040420F0000000140400200201F4808B57E
:100A2000016841F480410160006800F4804000905A
:100A30001A48001F016841F080510160006800F011
:100A400080500090032000F061F8002211466FF002
:100A50000B0000F03BF8002211466FF00A0000F096
:100A600035F8002211466FF0090000F02FF800223F
:100A70001146501F00F02AF800221146101F00F006
:100A800025F800220F21901E00F020F800220F21EF
:100A9000BDE80840501E00F019B80000443802407C
:100AA00000F01F02012191404009800000F1E02088
:100AB000C0F88011704700F01F02012191404009E9
:100AC000800000F1E020C0F800117047F0B40E4B38
:100AD0001B680C46C3F30223C3F10705042D00D99C
:100AE0000425191D072901D2002300E0DB1E012681
:100AF00006FA05F1491E214099409E40761E164097
:100B00003143F0BC00F0F2BF0CED00E0064900F00C
:100B1000070208684FF6FF03184040EA0220034A24
:100B200010430860704700000CED00E00000FA057B
:100B30002DE9F0470E46050065D0DFF81481D8F89E
:100B40000000F7B200F00F00B04207D288F8007042
:100B5000D8F8000000F00F00B04254D128683D4C96
:100B6000810712D5400703D5206840F4E05020608B
:100B70002878000703D5206840F460402060206892
:100B8000A96820F0F000084320602878C0072DD025
:100B9000304968680839012812D0022813D0032888
:100BA00011D00968890700292DDA216821F0030195
:100BB00001432160FFF7A0FE814641F2883A0EE032
:100BC00009688903EFE709688901ECE7FFF794FEFC
:100BD000A0EB0901514502D90320BDE8F087206848
:100BE000696800F00C00B0EB810FEFD1D8F800106D
:100BF000404601F00F01B14207D90770006800F0CC
:100C00000F00B04201D00120E7E72878400705D562
:100C10002068E96820F4E050084320602878000745
:100C200006D52068296920F4604040EAC1002060B0
:100C300000F05CF82168084AC1F30311515CC84018
:100C4000064908600020FFF7AFFE0020C5E700005E
:100C5000003C024008380240443300081C000020D9
:100C60000F2202600C4A136803F003034360136809
:100C700003F0F0038360136803F4E053C360126869
:100C80004FF4E05303EAD20202610448006800F026
:100C90000F0008607047000008380240003C024026
:100CA00001480068704700001C0000200448054906
:100CB00000680968044AC1F38221515CC84070474A
:100CC0001C0000200838024054330008044805493D
:100CD00000680968044AC1F34231515CC84070475A
:100CE0001C0000200838024054330008154810B595
:100CF000006810F00C02144813D01449042A0FD0D5
:100D0000082A0ED10F4C241F2268236802F03F02EC
:100D10005B0207D52068C0F38810A0FB010106E044
:100D2000084610BD2168C1F38811A1FB0001002312
:100D3000FFF7A4FA2168C1F30141491C4900B0FB47
:100D4000F1F010BD083802400024F40040787D0125
:100D50002DE9F84F050076D02878DFF8F8B2BE4CC0
:100D6000C00749D0DBF800105846C1F381010129C2
:100D700008D00068C0F3810002280AD1201D006855
:100D8000400206D52068800336D568680028E2D086
:100D900032E06868B0F5803F10D0B0F5A02F206831
:100DA00010D020F480302060206820F48020206063
:100DB0006868A0B1FFF7A0FD06460CE0206840F48B
:100DC0008030F4E740F480202060F7E7FFF794FDDF
:100DD000801B642873D820688003F7D50CE0FFF7E8
:100DE0008BFD064605E000BFFFF786FD801B6428EB
:100DF000F0D820688003F7D42878DFF86082800775
:100E00004FF000093ED5DBF80010584611F00C0FEA
:100E100009D00068C0F3810002280BD18D48001F63
:100E20000068400206D42068800715D5E8680128CC
:100E300009D111E0E868B8B10120C8F80000FFF757
:100E40005BFD064605E002E1FFF756FD801B022828
:100E5000C0D820688007F7D52068296920F0F800FD
:100E600040EAC10020600DE0C8F80090FFF744FDA3
:100E7000064604E0FFF740FD801B02281FD82068CB
:100E80008007F7D42878000722D5724E7448696924
:100E90006C3671B101210160FFF72EFD074604E0B9
:100EA000FFF72AFDC01B022809D830688007F7D554
:100EB0000EE0C0F80090FFF71FFD074605E083E055
:100EC000FFF71AFDC01B02287ED830688007F7D4D0
:100ED0002878400768D5DFF87CA100270AF1380A96
:100EE000DAF80000C0000BD4DAF8001041F08051AD
:100EF000CAF80010DAF80000012700F080500090D6
:100F0000584E3068C00510D4306840F480703060AE
:100F1000FFF7F2FC009005E0FFF7EEFC0099401AA5
:100F2000022851D83068C005F6D54A4EA868683600
:100F300001280FD00528306810D020F00100306063
:100F4000306820F004003060A868B8B1FFF7D4FC26
:100F500000900FE0306840F00100F4E740F004003A
:100F60003060F7E7FFF7C8FC0099411A41F288307A
:100F7000814264D830688007F4D50EE0FFF7BCFCEE
:100F8000009007E0FFF7B8FC0099411A41F2883061
:100F9000814254D830688007F4D42FB1DAF80010B9
:100FA00021F08051CAF80010A869C0B3DBF8001026
:100FB000C1F3810102294AD00228484607D0C8F867
:100FC0006000FFF799FC00E039E005463AE047464B
:100FD000C8F86000FFF790FC064604E0FFF78CFCC1
:100FE000801B02282BD820688001F7D4D5E907019F
:100FF0000843A96A1C4A490802EB01416A6A41EAAE
:101000008211084395F82C1040EA01611148001F35
:10101000016001203866FFF76FFC054605E014E02B
:10102000FFF76AFC401B022809D820688001F7D529
:101030000BE000BFFFF760FC401B022802D9032031
:10104000BDE8F88F20688001F4D40020F8E7012083
:10105000F6E700000838024000380240000047422E
:10106000800E4742007000400000FFFF4FF0E0217B
:101070000428086903D020F004000861704740F09C
:101080000400FAE710B5401EB0F1807F01D30120C3
:1010900010BD4FF0E02460610F21601700F026FDC5
:1010A0000020A06107202061002010BD704770471C
:1010B00030B590F83820012A20D0012280F838205D
:1010C000022380F8393003685C6824F070045C60A7
:1010D00003685C680D682C435C6003689C6824F0BE
:1010E00080049C6003689C6849680C439C6080F89D
:1010F0003920002180F83810084630BD022030BD6C
:1011000010B5040003D094F8390010B107E00120B5
:1011100010BD002084F83800204600F00DF80220B1
:1011200084F83900211D206800F086FE012084F833
:101130003900002010BD000008B50068064988424B
:1011400008D10648016841F480710160006800F42C
:101150008070009008BD0000002000404038024030
:10116000022180F8391001680A6842F001020A6021
:10117000012180F83910002070470168CA6842F0E8
:101180000102CA600068016841F0010101600020AD
:101190007047022180F8391001680A6A41F2111380
:1011A0001A4207D10A6A9B101A4203D10A6822F038
:1011B00001020A60012180F8391000207047704751
:1011C00070B50446006801694FF00005C9438907FE
:1011D00015D4C168C943890711D4E91E01610120F2
:1011E0002076206880698007204602D0FFF7E7FF5D
:1011F00004E000F0C1F8204600F060F92576206890
:101200000169C943490717D4C168C943490713D4C1
:101210006FF004010161022020762068806910F4DB
:10122000407F204602D0FFF7CAFF04E000F0A4F898
:10123000204600F043F9257620680169C943090773
:1012400016D4C168C943090712D46FF008010161BF
:10125000042020762068C0698007204602D0FFF76E
:10126000AEFF04E000F088F8204600F027F925766C
:1012700020680169C943C90617D4C168C943C906B2
:1012800013D46FF010010161082020762068C06936
:1012900010F4407F204602D0FFF791FF04E000F0F9
:1012A0006BF8204600F00AF9257620680169C943E9
:1012B000C90708D1C168C943C90704D1891E0161A2
:1012C000204600F019F920680169C943090609D4CC
:1012D000C168C943090605D46FF080010161204649
:1012E000FFF7E4FE20680169C943490609D4C168D3
:1012F000C943490605D46FF040010161204600F062
:1013000005F920680169C94389060BD4C168C9433E
:10131000890607D46FF0200101612046BDE87040C6
:10132000FFF7C5BE70BD000000B5026800210220B5
:1013300085B0B2F1804F0FD00C4B9A420AD14FF4D6
:1013400070420092CDE90101CDE9031069460848D9
:10135000FFF7ECF905B000BD0C220092CDE90101C8
:101360000120CDE9031069460248F1E7000800407A
:10137000000C024000000240704770B5044690F82F
:1013800038000D4601280DD0012684F8386002206F
:1013900084F8390042B1042A18D0082A2AD00C2A2D
:1013A0004DD139E0022070BD206800F0B1FD206809
:1013B000816941F0080181612068816921F004019F
:1013C0008161206881692A69114311E0206800F079
:1013D000CBFD2068816941F40061816120688169E9
:1013E00021F480618161206881692A6941EA0221D2
:1013F000816124E0206800F0E9FD2068C16941F0C6
:101400000801C1612068C16921F00401C16120683F
:10141000C1692A69114311E0206800F007FE2068C5
:10142000C16941F40061C1612068C16921F4806132
:10143000C1612068C1692A6941EA0221C16184F859
:101440003960002084F8380070BD10B5040003D066
:1014500094F8390010B107E0012010BD002084F895
:101460003800204600F00CF8022084F83900211DD5
:10147000206800F0E1FC012084F83900002010BD54
:1014800008B501680B48B1F1804F0BD00A4A914270
:1014900007D1016841F004010160006800F0040018
:1014A000009008BD016841F001010160006800F092
:1014B0000100F5E740380240000800407047000096
:1014C00010B504460068012200F016FD08492068A6
:1014D000884202D00749884203D1416C41F400415F
:1014E00041642068016841F001010160002010BDE5
:1014F000000001400004014000680349884201D116
:10150000FFF730BA70470000000001407047704795
:1015100070B5040004D094F83900002510B106E03D
:10152000012070BD84F83850204600F023F82420B4
:1015300084F839002068C16821F40051C160204658
:1015400000F064FF2068016921F490410161206886
:10155000416921F02A0141612068C16841F40051CC
:10156000C160E563202084F8390084F83A00002047
:1015700070BD000070B5064600681C4986B0884200
:1015800031D11B480025016841F01001016000685D
:10159000694600F0100005904FF4C06000900220F2
:1015A000019001200290032003900720049011482D
:1015B000FFF7BCF8114C104820604FF00060C4E900
:1015C00001054014C4E903506561A561E561256228
:1015D00020466562FEF7F2FF18B1782108A001F0FD
:1015E0006CF87463A66306B070BD00000010014083
:1015F000443802400000024040640240E001002004
:101600002E2E2F5372632F75736172742E63000038
:10161000F8B5044690F83A0020283CD1C1B3BAB3DB
:1016200094F83800012836D0012084F83800A162EF
:10163000A2850025E563222084F83A00636B1748F1
:10164000D863636B16481864636B1648D864606B84
:10165000134605650846666B216802463046091D3B
:10166000FFF716F8206801684168009184F8385047
:10167000C16841F48071C1602068416941F0010195
:1016800041612068416941F0400141610020F8BD9D
:10169000FFE70120FBE70220F9E70000972300089D
:1016A000D32300084D2300080249884201D101F0EC
:1016B0002DB87047A00100207047FEE710B5012249
:1016C00006490748FFF7A4FF002805D0BDE81040F1
:1016D000092104A000F0F1BF10BD0000DD000020D2
:1016E000A00100202E2E5C5461736B735C537263F7
:1016F0005C447269766572735F7561727467797242
:101700006F2E63002DE9F04101220F4D570239463B
:101710002846FFF7ECF82E15002231462846FFF741
:10172000E6F8002439462846FFF7DDF8314628461A
:10173000FFF7D9F86420FEF7E7FF641CE4B2052C3C
:10174000F0D3BDE8F081000000140240094808B55C
:10175000016841F4800101600068002200F480000B
:10176000009005213A20FFF7B1F9BDE808403A2082
:10177000FFF7A1B93038024010B594B0FFF79EFFD3
:10178000FFF7C0FF142216496846FEF7A8FD0021A6
:10179000684601F057F8134C1149142220601431A7
:1017A00005A8FEF79CFD002105A801F04BF80C49A7
:1017B0006060142228310AA8FEF791FD00210AA8D2
:1017C00001F040F80649A06014223C310FA8FEF752
:1017D00086FD00210FA801F035F8E06014B010BDBF
:1017E000EC320008000000202DE9F041334886B0BB
:1017F0000024016841F020010160016801F020012E
:101800000591016841F080010160016801F08001EB
:101810000591016841F001010160016801F00101D9
:101820000591016841F010010160016801F01001AB
:101830000591016841F002010160016801F00201B7
:101840000591016841F00801016000681C4E00F03C
:1018500008004FF4C0650590002229463046FFF786
:1018600046F8DFF860804FF4604700223946404672
:10187000FFF73DF800950125CDE901546946304652
:101880000394FEF753FFA803CDE9000469460E4810
:101890000294FEF74BFF280302268DE851006946AB
:1018A0004046FEF743FFCDE90264CDE90075694685
:1018B0004046FEF73BFF06B0BDE8F08130380240FD
:1018C0000014024000040240001002400A4810B513
:1018D000084901600321416040F6B8318160FFF79B
:1018E00011F8002805D0BDE81040442103A000F005
:1018F000E4BE10BD00300040E00000202E2E2F532B
:1019000072632F697764672E630000000B4810B57F
:10191000094901602F21416000210122C0E9021222
:101920000161FFF7EDFB002805D0BDE81040A221C2
:1019300003A000F0C2BE10BD0020004064010020E2
:101940002E2E2F5372632F74696D2E6300000000DA
:1019500010B51F488AB04FF08041016040F2DF119E
:101960000024C0E9011440F2CF71C0E90314FFF76D
:101970006CFD18B14A2117A000F09FFE079407A93B
:1019800013480894FFF794FB18B1512111A000F0FF
:1019900094FE6020CDE900040294082269460C48B8
:1019A0000494FFF7EAFC18B15A210AA000F085FE62
:1019B0000C2269460648FFF7E0FC18B15F2105A03C
:1019C00000F07BFE0248FFF7AFFC0AB010BD00003C
:1019D000EC0000202E2E2F5372632F74696D2E633E
:1019E0000000000010B528488AB0264901602F2168
:1019F0000024C0E901146321C0E90314FFF725FDA9
:101A000018B1722121A000F058FE079407A91E48C2
:101A10000894FFF74DFB18B179211CA000F04DFE92
:101A20006020CDE90004029400226946164804941F
:101A3000FFF7A3FC18B1822114A000F03EFE04229F
:101A400069461148FFF799FC18B187210FA000F0F3
:101A500034FE082269460C48FFF78FFC18B18C2130
:101A60000AA000F02AFE0C2269460748FFF785FC11
:101A700018B1912105A000F020FE0348FFF754FCA7
:101A80000AB010BD00080040280100202E2E2F5360
:101A900072632F74696D2E63000000000D4810B54D
:101AA0000B4901604FF4E1314160002181600C225B
:101AB000C160C0E904128161C161FFF729FD0028FE
:101AC00005D0BDE810404E2103A000F0F6BD10BDCA
:101AD00000100140A00100202E2E2F5372632F759D
:101AE000736172742E630000FEE770470907090EE8
:101AF000002806DA00F00F0000F1E02080F8141D45
:101B0000704700F1E02080F800147047002004497D
:101B100002460A54401CC0B20928FAD3704700009C
:101B20006C3F00202DE9F84F80460120ADF8000001
:101B3000234F00217970ADF800004FF40059214C7B
:101B4000C5034FF4805A4FF6FF7630E0BDF8000031
:101B500010EA080F01D0012200E000224946204689
:101B6000FEF7C5FE012229462046FEF7C0FE0A20E8
:101B700000F0B4FD002229462046FEF7B8FE0A20F8
:101B800000F0ACFD012229462046FEF7B0FE51468A
:101B90002046FEF7A3FE20B17878BDF80010084378
:101BA0007870BDF8000006EA4000ADF80000BDF80E
:101BB0000000FF28CAD9BDE8F84F102000F08EBD04
:101BC0006C3F00200004024070B5FFF79FFF00F05B
:101BD0001BF80B480B4BB0F803100A480C3341813B
:101BE0000020012413F8105000F101006D1E04FACA
:101BF00005F20A42C0B202D01028F3D3002070BD13
:101C00006C3F0020AE0000202DE9FC4700208DF83D
:101C100000000124ADF804402E4E02464FF4804AE5
:101C200051463046FEF763FE2B4D2878FFF77AFFCA
:101C30006878FFF777FF02208DF80000A046344651
:101C400085034FF48059254F4FF6FF7636E0404626
:101C500026E0012229462046FEF749FE0A2000F030
:101C60003DFD002229462046FEF741FE0A2000F0F5
:101C700035FD012229462046FEF739FE4946204619
:101C8000FEF72CFE40B19DF80000BDF80410385C52
:101C900008439DF800107854BDF8040006EA40009F
:101CA000ADF80400BDF80400FF28D2D90A2000F0E6
:101CB00015FD9DF80000401C8DF800009DF8000007
:101CC0000928C4D302B051462046BDE8F04701229E
:101CD000FEF70DBE00040240B60000206C3F00205D
:101CE00070B53A20FEF7DCFE0F4E4FF4804500221F
:101CF00029463046FEF7FBFD0C4C2078FFF712FF1B
:101D00006078FFF70FFF012229463046FEF7EFFD0E
:101D10003A20FEF7C5FE06484078732801D000201F
:101D200070BD012070BD000000040240B60000201C
:101D30006C3F002000F07CBD30B5254893B00024F6
:101D4000016841F080510160006800F080501190FE
:101D50002048016841F4804101600068012100F4DD
:101D6000804011900A2000901020CDE90310CDE9A9
:101D700007400225CDE90515C020CDE9090504205D
:101D80000B906846FEF7E4FF00B1FEE70F20CDE9B7
:101D90000C054FF4A050CDE90E404FF48050109048
:101DA00003210CA8FEF7C4FE00B1FEE7FEF778FFA2
:101DB0004FF47A71B0FBF1F0FFF764F90420FFF7FC
:101DC00055F900220F21501EFEF780FE13B030BDE2
:101DD00040380240007000401048016841F4700132
:101DE00001600F48016841F0010101600C4A0021C7
:101DF0000832116002680B4B1A400260031D0A4A48
:101E00001A60026822F48022026005480C300160EA
:101E100002495806803908607047000088ED00E0EC
:101E200000380240FFFFF6FE103000240148FFF7A3
:101E3000C7B9000040020020F0B50268234B244DD2
:101E4000244E254F254C4FF0804C984209D06045D8
:101E500007D0A84205D0B04203D0B84201D0A0427A
:101E600004D122F0700E4A6842EA0E0298421BD05A
:101E7000604519D0A84217D0B04215D0B84213D04F
:101E8000A04211D0164DA8420ED0164DA8420BD03C
:101E9000154DA84208D0154DA84205D0144DA842B2
:101EA00002D0144DA84203D122F44075CA682A43D7
:101EB00002608A68C2620A688262984201D0A042C7
:101EC00001D10969016301214161F0BD00000140B8
:101ED0000004004000080040000C004000040140E5
:101EE000004001400044014000480140001800400B
:101EF000001C00400020004010B50123046A8B4004
:101F00009C430462036A8A401343036210BD0000CD
:101F100030B5026A22F001020262026A43688469F3
:101F20000D6824F07304254322F002048A682243DA
:101F30000B4CA04202D00B4CA0420BD122F0080463
:101F4000CA6823F4407322434C6922F004021C4304
:101F50008B6923434360856149684163026230BDF8
:101F6000000001400004014030B5026A22F0100276
:101F70000262026A436884690D6824F4E64444EA14
:101F800005248D6822F0200242EA05120D4DA84278
:101F900002D00D4DA8420ED1CD6822F0800242EA57
:101FA00005124D6923F4406343EA85038D6922F0ED
:101FB000400243EA850343608461496881630262A9
:101FC00030BD0000000001400004014030B5026A4D
:101FD00022F480720262036A4268C46923F40073C7
:101FE00024F073050C682C438D6843EA05230D4DDE
:101FF000A84202D00C4DA8420ED1CD6823F4006354
:1020000043EA05234D6922F4405242EA05128D69E4
:1020100023F4806342EA05124260C4614968C163E7
:10202000036230BD000001400004014030B5026A87
:1020300022F480520262046A4268C3690D6823F484
:10204000E64343EA05238D6824F4005444EA05344A
:10205000084DA84202D0084DA84204D14D6922F48F
:10206000804242EA85124260C361496801640462A9
:1020700030BD000000000140000401402DED028B46
:102080005B4D5C4C9FED5C8A5C4E00BF00F082FBB8
:102090002870307878B100F049FE60B96078512836
:1020A0000DD052284BD053287AD0352154A000F0BF
:1020B00004FB002030700A2000F0AEFBE6E7E07879
:1020C000A178000200B2084300EE100AB8EEC00A80
:1020D00060EE080AB3EE000A60EE800AC5ED070A5A
:1020E00060792179000200B2084300EE900AF8EE10
:1020F000E00A60EE880A60EE800AC5ED080AE07921
:10210000A179000200B2084300EE900AF8EEE00A5E
:1021100060EE880A20EE800A85ED090AB4F908000D
:1021200000EE100AF8EEC00A9FED3C1A80EE810A1C
:10213000DFED3B0A30EE200A85ED0A0AB9E7E078C8
:10214000A178000200B2084300EE100ADFED350A64
:10215000B8EEC00A20EE080A20EE200A85ED040A37
:1021600060792179000200B2084300EE100AB8EE4F
:10217000C00A20EE080A20EE200A85ED050AE07963
:10218000A179000200B2084300EE100AB8EEC00ABE
:1021900020EE080A20EE200A85ED060A89E7FFE70F
:1021A000B4F9020000EE100AB8EEC00A60EE080AA8
:1021B0009FED1D0A60EE800AC5ED010AB4F9040026
:1021C00000EE900AF8EEE00A60EE880A60EE800AFF
:1021D000C5ED020AB4F9060000EE900AF8EEE00A36
:1021E00060EE880A20EE800A85ED030A61E70000B0
:1021F00080000020753F002000000038DC00002037
:102200002E2E5C5461736B735C5372635C54617308
:102210006B5F6779726F2E63000000000000AA43B5
:10222000000011420000FA44000034430A4C4FF40D
:10223000007526154FF49677002229462046FEF7B2
:1022400056FB31462046FEF74EFB0448FEF783FB63
:10225000384600F0E1FAEFE700140240E000002009
:10226000002000F027FD002000F044FD224D214C0D
:1022700029682088C863214F214E00BFFFF730FD39
:1022800048B1DFF88080B8F9000000F013FDB8F91C
:10229000000000F02FFD3878B6F90010014305D09A
:1022A0002A682188D1630D2811D101E020881BE024
:1022B0001439D163C82000F0AFFA2088296814309F
:1022C000C863C82000F0A8FA29682088C863FFF70F
:1022D00007FD58B1B6F900007F2190FBF1F06FF0D7
:1022E00018014843218808442968C863322000F057
:1022F00093FAC3E7AC000020EC000020AE00002001
:10230000B4000020B00000204FF47A70FEF7FCF912
:102310000C4C0D4D3A20FEF7C3FBFFF755FC207027
:10232000287A7F3840426080E8798038A0806879D8
:102330008038E0803A20FEF7BEFB0A2000F06CFAFD
:10234000E8E70000AE0000206C3F002070B5846B11
:102350002068406994F83910C0F3C0100025212985
:1023600004D118B1E584204600F046F820684069A1
:1023700094F83A10C0F38010222904D118B1E585F1
:10238000204600F02BF8E06B40F01000E0632046A0
:10239000FFF7BDF870BD10B50146806B096809688C
:1023A000C90513D40021C1850168CA6822F480726E
:1023B000CA6001684A6922F001024A6101684A69FB
:1023C00022F040024A61202180F83A10FFF76CF9B0
:1023D00010BD10B5806BFFF76FF910BD0168CA68BA
:1023E00022F49072CA6001684A6922F001024A61CF
:1023F000202180F83A1070470168CA6822F0C002B4
:10240000CA60202180F83910704700002DE9F041A2
:1024100004460068016921F44052E16811430161FA
:102420002168C86849F20C6290432369A268E56993
:102430001A4363692B431A430243CA6021684869FF
:1024400020F44072A06910434861E1696425B1F548
:10245000004F9748974A21684FF032083FD0914289
:1024600001D081427CD1FEF731FC00EBC00101EBD1
:10247000001061688900B0FBF1F6FEF727FC00EB65
:10248000C00101EB001061688900B0FBF1F0B0FB06
:10249000F5F06FF01801484306EB800108EB0110DE
:1024A000B0FBF5F000F0F006FEF710FC00EBC00109
:1024B00001EB001061688900B0FBF1F0B0FBF5F0B2
:1024C00006EB0016FEF702FC00EBC00101EB00106A
:1024D00061688900B0FBF1F7FEF7F8FBD2E09142AA
:1024E00001D081423DD1FEF7F1FB00EBC00101EBD1
:1024F000001061684900B0FBF1F0B0FBF5F0060197
:10250000FEF7E4FB00EBC00101EB0010616849003D
:10251000B0FBF1F7FEF7DAFB00EBC00101EB0010B6
:1025200061684900B0FBF1F0B0FBF5F06FF0180105
:10253000484307EB800108EBC100B0FBF5F000F069
:10254000F80006EB4006FEF7C1FB00EBC00101EB13
:10255000001061684900B0FBF1F7FEF7B7FB3CE003
:1025600055E0FEF7A3FB00EBC00101EB0010616832
:102570004900B0FBF1F0B0FBF5F00601FEF796FB69
:1025800000EBC00101EB001061684900B0FBF1F7FE
:10259000FEF78CFB00EBC00101EB00106168490005
:1025A000B0FBF1F0B0FBF5F06FF01801484307EB1A
:1025B000800108EBC100B0FBF5F000F0F80006EB7D
:1025C0004006FEF773FB00EBC00101EB00106168F1
:1025D0004900B0FBF1F7FEF769FB00EBC00101EB2E
:1025E000001061684900B0FBF1F0B0FBF5F06FF04E
:1025F0001801484307EB800108EBC100B0FBF5F080
:1026000000F00700216830448860BDE8F081FEF7E3
:102610004DFB00EBC00101EB001061688900B0FBCD
:10262000F1F6FEF743FB00EBC00101EB001061681F
:102630008900B0FBF1F0B0FBF5F06FF018014843F2
:1026400006EB800108EB0110B0FBF5F000F0F0069E
:10265000FEF72CFB00EBC00101EB00106168890064
:10266000B0FBF1F0B0FBF5F006EB0016FEF71EFB39
:1026700000EBC00101EB001061688900B0FBF1F7CD
:10268000FEF714FB00EBC00101EB0010616889004C
:10269000B0FBF1F0B0FBF5F06FF01801484307EB29
:1026A000800108EB0110B0FBF5F000F00F00A9E786
:1026B0000014014000100140FEE7FEE702E008C8F8
:1026C000121F08C1002AFAD170477047002001E0AC
:1026D00001C1121F002AFBD17047000070B54FF6F0
:1026E000FA75281A84B20848FEF73AFD06480168D0
:1026F0004C62006801E0416A8CB2AC42FBD3BDE899
:1027000070400148FEF745BD64010020164810B531
:1027100002460478154B5278012174B1C4789C5458
:10272000521CD2B200234270142A02D903704370A3
:102730000AE00B2A08D18170F8E72AB9C278552A35
:1027400002D101701A70417007490122C91C084862
:10275000FEF75EFF002805D0BDE81040302105A03F
:10276000FFF7ABBF10BD0000DA000020753F00206E
:10277000A00100202E2E5C5461736B735C53726356
:102780005C447269766572735F75617274677972A1
:102790006F2E630010B54FF480410348FEF79EF89A
:1027A000012800D0002010BD00100240FEF7E2F822
:1027B000FFF7C2FAFFF718F8FEF7C8FFFFF76EF948
:1027C000FFF7C6F8FFF7A2F8FFF780F8FFF70AF95E
:1027D00008210C48FEF774FE00210B48FEF770FE3E
:1027E00004210948FEF76CFE08210748FEF768FE41
:1027F0000C210548FEF764FEFEF7BEFF00F013F85B
:10280000FEE70000EC000020280100200146002027
:10281000842900D0C81C704710B500B9012000F011
:102820004FFB002010BD10B500F070FB002010BD64
:1028300010B500F087FC012803D0BDE8104000F07F
:102840003FBC10BD3EB504460D46B0F90800FFF789
:10285000DDFF02A9CDE90001208A2B4682B2D4E92E
:10286000001000F043FC012801D000203EBD02987A
:102870003EBD00002DE9F041184C0F460546E668C4
:102880002068001D00F066FA38B9206890F82C1016
:1028900001208840216981432161681C07D137B13B
:1028A0002168BDE8F0410E48091D00F08BBA206890
:1028B0003544B5424560216805D2A06BBDE8F041C2
:1028C000091D00F067BA606B091D00F063FAA06A89
:1028D000854200D2A562BDE8F081000044000020DE
:1028E000583F00202DE9F041054600F077FA2E4CC4
:1028F000A068401CA06020682C4F10B1606940B3F4
:102900002DE02560A068012829D1002606EB86006D
:1029100007EB800000F030FA761C072EF6D3234830
:102920008C3000F029FA2148A03000F025FA1F4829
:10293000B43000F021FA1D48C83000F01DFA1B48E1
:10294000DC3000F019FA19488C3060631430A06351
:1029500005E02068E96AC06A884200D82560606A9C
:10296000401C6062E96A01202269884010432061AE
:1029700001EB810007EB8000291D00F023FA00F035
:102980004DFA606900280CD02068E96AC06A884264
:1029900007D207494FF080500860BFF34F8FBFF355
:1029A0006F8FBDE8F0810000440000207C3E0020D5
:1029B00004ED00E070B5114E114C17E000F0DAFAAA
:1029C0003068B8B100F030FC00F008FAF068C56873
:1029D000281D00F0BFF9A068401EA0606068401E7E
:1029E000606000F01BFA284600F00CF860680028D0
:1029F000E4D170BD00F018FCF8E70000443F00206F
:102A00004400002010B50446006B00F01BFA20467D
:102A1000BDE8104000F016BA10484FF4705142075C
:102A200006D0C01D0D4920F00700411AC1F57051B4
:102A30000B4A00230144C2E900030839103A21F08F
:102A4000070111604B600B600B1AC0E90013936023
:102A50004FF000405360D060704700007C020020BF
:102A600030000020074C4FF08056074DFFF7A2FFC3
:102A700020680128FAD92E60BFF34F8FBFF36F8F04
:102A8000F4E700007C3E002004ED00E02DE9F04773
:102A90009A46DDE9098481466FF00303206B03EB5E
:102AA00082021044089D20F00706700707D05020CE
:102AB00080F31188BFF34F8FBFF36F8FFEE72318AA
:102AC0000A5C83F834200A5C12B1401C1028F6D34B
:102AD000002784F84370072D00D30625E562C4E97A
:102AE0001157201D00F053F904F1180000F04FF9C0
:102AF0002461C5F107006462A061E76484F8507046
:102B000052464946304600F0BFF82060B8F1000F49
:102B100001D0C8F80040BDE8F087000030B5114989
:102B200000E011460A688242FBD34B685C1884427D
:102B300003D1406818444860084643681C18944212
:102B400009D1084C103C2468A24209D052681A44AA
:102B500042600A6812680260814200D0086030BD9D
:102B60000460F9E7300000200648416B096829B18C
:102B7000416BC968C9684968816270474FF0FF318D
:102B8000FAE700004400002008484068401C4FF06D
:102B9000500080F3118804D0BFF34F8FBFF36F8FC5
:102BA000FEE7BFF34F8FBFF36F8FFEE738000020C3
:102BB0002DE9F0410546002700F0DCF9314E306880
:102BC00008B9FFF729FFF06805424BD1C5B30835B6
:102BD00068070ED005F00700C0F10800054468073B
:102BE00007D0502080F31188BFF34F8FBFF36F8F52
:102BF000FEE72DB37068854234D822481030014674
:102C00000C6801E020460C466168A94202D22168A6
:102C10000029F7D131688C4224D00768216801600F
:102C200060680837411B10290FD96019420708D086
:102C3000502080F31188BFF34F8FBFF36F8FFEE7F3
:102C400010E041606560FFF769FF61687068401AD5
:102C50007060B268904200D2B060F068014300201A
:102C6000C4E9000100F0E0FA780707D0502080F3B3
:102C70001188BFF34F8FBFF36F8FFEE73846BDE873
:102C8000F08100002000002010B5031F4FF0807479
:102C90001C601B1F21F001011960191F044B0B6000
:102CA00014390A60091F6FF0020244380A6010BD2F
:102CB000892B00080E4910B500230A6800280ADB9A
:102CC000642410FB04F0C41700EB5460C01150637F
:102CD0000868836310BD53636FF0630210FB02F05A
:102CE000C217096800EB5260C011886310BD000074
:102CF000280100200C4900220028096809DB642310
:102D000010FB03F0C31700EB5360C011C8630A64E3
:102D10007047CA636FF0630210FB02F0C21700EB4A
:102D20005260C0110864704728010020074910B59F
:102D3000074A887A5070002054780B5C401CE31AD4
:102D400053700A28F8DBD8B210BD0000753F002090
:102D500080000020D0E9013201699A60D0E90123A6
:102D60005A604A68824201D182684A600022026148
:102D70000868401E0860704700F108014FF0FF32FC
:102D8000C0E90112C16001610021016070470021AA
:102D90000161704730B50B685A1C02D000F108027F
:102DA00002E0026904E02246546825689D42FAD98F
:102DB00053684B6099608A60516008610168491CE2
:102DC000016030BD42684A6093688B6093685960C7
:102DD000916008610168491C01607047502080F3D0
:102DE0001188BFF34F8FBFF36F8F0A494868401CAB
:102DF000486001280CD10848006810F0FF0F07D088
:102E0000502080F31188BFF34F8FBFF36F8FFEE721
:102E1000704700003800002004ED00E008494868D1
:102E200028B1401E486001D180F3118870475020BE
:102E300080F31188BFF34F8FBFF36F8FFEE7000061
:102E40003800002070B5002827D0144DA0F10804E8
:102E50006168E868014207D1502080F31188BFF310
:102E60004F8FBFF36F8FFEE722683AB1502080F397
:102E70001188BFF34F8FBFF36F8FFEE7814361600F
:102E800000F078F860686968084468602046FFF7D9
:102E900045FEBDE8704000F0C7B970BD20000020BD
:102EA00006484FF47A710068B0FBF1F14FF0E02072
:102EB000491E416107210161704700001C0000208C
:102EC00010B5020014D00F48006B38B1502080F3C9
:102ED0001188BFF34F8FBFF36F8FFEE700F04AF802
:102EE00000211046FFF7C6FC00F09EF9002807D12C
:102EF00005494FF080500860BFF34F8FBFF36F8FCD
:102F000010BD00004400002004ED00E01CB5154891
:102F10000024CDE900402346802213A1144800F08C
:102F2000E5F8012809D0401C1AD1502080F31188FF
:102F3000BFF34F8FBFF36F8FFEE7502080F31188F0
:102F4000BFF34F8FBFF36F8F06484FF0FF312C3820
:102F5000816201214161C460BDE81C4000F040B8BD
:102F60001CBD00007000002049444C4500000000DA
:102F7000652A00080248016B491C01637047000084
:102F8000440000201448016B11B10121C161704758
:102F90000021C1610169B1FA81F1C1F11F0101EBA9
:102FA00081020E4951F822306BB101EB820101F12F
:102FB00008034A6852684A609A4201D152684A60DE
:102FC000D16801607047502080F31188BFF34F8FA4
:102FD000BFF36F8FFEE70000440000207C3E00201E
:102FE0001CB532480168324A914207D1502080F323
:102FF0001188BFF34F8FBFF36F8FFEE700682C4936
:10300000491E884207D1502080F31188BFF34F8FAB
:10301000BFF36F8FFEE7274908780190FF20087003
:1030200008788DF800009DF800009DF8002000F061
:10303000F000904207D0502080F31188BFF34F8FEB
:10304000BFF36F8FFEE79DF800001B4A00F05000B1
:1030500010700720906005E09DF800305B008DF84F
:103060000030401E9DF800301B06F5D4000200F42D
:10307000E0609060019808700C482030016841F4CD
:1030800070010160016841F070410160FFF708FFC5
:1030900000205060FDF7A2F80848016841F0404167
:1030A0000160FDF78BF800201CBD000000ED00E082
:1030B00071C20F4100E400E03800002034EF00E06E
:1030C00010B5502080F31188BFF34F8FBFF36F8F7F
:1030D00000F046F818B104494FF080500860002015
:1030E00080F3118810BD000004ED00E02DE9FF5FC2
:1030F0008346DDE90E87994616468A469000FFF71B
:1031000057FD05001AD05420FFF752FD040012D0DD
:1031100025630021CDE90241CDE900874B463246C7
:1031200051465846FFF7B2FC2046FFF7DBFB012073
:1031300004B0BDE8F09F2846FFF784FE4FF0FF3053
:10314000F6E700000548416919B1006B18B100208D
:1031500070470120704702207047000044000020A3
:103160002DE9F0412E4C0027206B40B1A069401C96
:10317000A061E06900B101273846BDE8F081E6684A
:10318000761CE66013D1606B006838B1502080F384
:103190001188BFF34F8FBFF36F8FFEE7606BA16B9A
:1031A0006163A063206A401C2062FFF7DDFCA06A17
:1031B000DFF87080864209D3606B006880B1606B75
:1031C000C068C568686886420DD2A0622068C06A7F
:1031D00000EB800158F821000128CAD90127C8E76F
:1031E0004FF0FF30F1E7281DFFF7B4FDA86A18B1D2
:1031F00005F11800FFF7AEFDE86A01212269814060
:103200001143216100EB800108EB8100291DFFF7CC
:10321000D9FDE86A2168C96A8842CDD30127CBE786
:10322000440000207C3E00202DE9F0472C4D002476
:103230002746286B38B1FFF7D1FD286B401E286365
:10324000286B40B146E0502080F31188BFF34F8FC8
:10325000BFF36F8FFEE7A968224E0120D1B3A6F11C
:10326000B40980463068E8B1F068C46804F1180019
:10327000FFF770FD201DFFF76DFDE06A2A6908FA6F
:1032800000F11143296100EB800109EB8100211D50
:10329000FFF798FDE06A2968C96A8842E2D3C5F859
:1032A0001C80DFE70CB1FFF75FFCAC6944B1464618
:1032B000FFF756FF00B1EE61641EF9D10020A8614E
:1032C000E86938B10849012738070860BFF34F8F14
:1032D000BFF36F8FFFF7A2FD3846BDE8F08700000F
:1032E00044000020303F002004ED00E06833000877
:1032F0002D220008FFFF00000000000080000000F9
:10330000803300087D20000801000000000000005C
:103310000001000074330008612200080000000072
:1033200000000000800000005C3300080923000852
:10333000020000000000000000040000000610165B
:103340000006101600000000000000000102030447
:103350000607080900000000010203045441534B12
:103360005F505332000000005441534B5F4C4544C2
:10337000000000005441534B5F534552564F00002C
:103380005441534B5F4752594F000000AC33000883
:1033900000000020E0000000BC2600088C3400087B
:1033A000E0000020E8420000CC26000800000000F9
:1033B000000000000000000000000000010000000C
:1033C00010000000000000000024F40000000000D5
:1033D00000000000000000000000000000000000ED
:1033E0000000000000000000AAAAAAAA0000000035
:1033F00000000000000000000000000000000000CD
:1034000000000000000000000000000000000000BC
:1034100000000000000000000000000000000000AC
:10342000000000000000000000000000000000009C
:10343000000000000000000000000000000000008C
:10344000000000000000000000000000000000007C
:1034500000000000000000009600000000000000D6
:10346000000001420000010002000300040005000A
:1034700006000700080009000A000B000C000D0000
:0C3480000E000F00100000000000000013
:040000050800018965
:00000001FF
